{
  "contractName": "SimpleStorage",
  "abi": [
    {
      "anonymous": false,
      "inputs": [
        {
          "indexed": false,
          "internalType": "uint256",
          "name": "storedInteger",
          "type": "uint256"
        },
        {
          "indexed": false,
          "internalType": "bool",
          "name": "storedBool",
          "type": "bool"
        },
        {
          "indexed": false,
          "internalType": "uint8",
          "name": "storedInteger8",
          "type": "uint8"
        },
        {
          "indexed": false,
          "internalType": "address",
          "name": "storedAddress",
          "type": "address"
        },
        {
          "indexed": false,
          "internalType": "bytes32",
          "name": "storedBytes32",
          "type": "bytes32"
        },
        {
          "indexed": false,
          "internalType": "bytes",
          "name": "storedBytes",
          "type": "bytes"
        },
        {
          "indexed": false,
          "internalType": "string",
          "name": "storedString",
          "type": "string"
        }
      ],
      "name": "StoredAll",
      "type": "event"
    },
    {
      "anonymous": false,
      "inputs": [
        {
          "indexed": false,
          "internalType": "uint256",
          "name": "storedInteger",
          "type": "uint256"
        }
      ],
      "name": "StoredInteger",
      "type": "event"
    },
    {
      "constant": false,
      "inputs": [
        {
          "internalType": "uint256",
          "name": "integer",
          "type": "uint256"
        }
      ],
      "name": "setInteger",
      "outputs": [],
      "payable": false,
      "stateMutability": "nonpayable",
      "type": "function"
    },
    {
      "constant": false,
      "inputs": [
        {
          "internalType": "uint256",
          "name": "integer",
          "type": "uint256"
        },
        {
          "internalType": "bool",
          "name": "boolean",
          "type": "bool"
        },
        {
          "internalType": "uint8",
          "name": "integer8",
          "type": "uint8"
        },
        {
          "internalType": "address",
          "name": "_address",
          "type": "address"
        },
        {
          "internalType": "bytes32",
          "name": "_bytes32",
          "type": "bytes32"
        },
        {
          "internalType": "bytes",
          "name": "_bytes",
          "type": "bytes"
        },
        {
          "internalType": "string",
          "name": "_string",
          "type": "string"
        }
      ],
      "name": "setAll",
      "outputs": [],
      "payable": false,
      "stateMutability": "nonpayable",
      "type": "function"
    }
  ],
  "bytecode": "0x608060405234801561001057600080fd5b506105c4806100206000396000f3fe608060405234801561001057600080fd5b50600436106100365760003560e01c806367c157a11461003b578063ac588675146101da575b600080fd5b6101d8600480360360e081101561005157600080fd5b8101908080359060200190929190803515159060200190929190803560ff169060200190929190803573ffffffffffffffffffffffffffffffffffffffff16906020019092919080359060200190929190803590602001906401000000008111156100bb57600080fd5b8201836020820111156100cd57600080fd5b803590602001918460018302840111640100000000831117156100ef57600080fd5b91908080601f016020809104026020016040519081016040528093929190818152602001838380828437600081840152601f19601f8201169050808301925050505050505091929192908035906020019064010000000081111561015257600080fd5b82018360208201111561016457600080fd5b8035906020019184600183028401116401000000008311171561018657600080fd5b91908080601f016020809104026020016040519081016040528093929190818152602001838380828437600081840152601f19601f820116905080830192505050505050509192919290505050610208565b005b610206600480360360208110156101f057600080fd5b8101908080359060200190929190505050610429565b005b8660008190555085600160006101000a81548160ff021916908315150217905550846001806101000a81548160ff021916908360ff16021790555083600160026101000a81548173ffffffffffffffffffffffffffffffffffffffff021916908373ffffffffffffffffffffffffffffffffffffffff1602179055508260028190555081600390805190602001906102a192919061046a565b5080600490805190602001906102b89291906104ea565b507fb64568d9b0a86ee0722bd1773d93497c73572db44ac1c1c0baeb14cd8e02e8378787878787878760405180888152602001871515151581526020018660ff1660ff1681526020018573ffffffffffffffffffffffffffffffffffffffff1673ffffffffffffffffffffffffffffffffffffffff1681526020018481526020018060200180602001838103835285818151815260200191508051906020019080838360005b8381101561037957808201518184015260208101905061035e565b50505050905090810190601f1680156103a65780820380516001836020036101000a031916815260200191505b50838103825284818151815260200191508051906020019080838360005b838110156103df5780820151818401526020810190506103c4565b50505050905090810190601f16801561040c5780820380516001836020036101000a031916815260200191505b50995050505050505050505060405180910390a150505050505050565b806000819055507fe6452fda282d738b0dafdab845143683b1ddb1739ed11699e10bea1e11aed170816040518082815260200191505060405180910390a150565b828054600181600116156101000203166002900490600052602060002090601f016020900481019282601f106104ab57805160ff19168380011785556104d9565b828001600101855582156104d9579182015b828111156104d85782518255916020019190600101906104bd565b5b5090506104e6919061056a565b5090565b828054600181600116156101000203166002900490600052602060002090601f016020900481019282601f1061052b57805160ff1916838001178555610559565b82800160010185558215610559579182015b8281111561055857825182559160200191906001019061053d565b5b509050610566919061056a565b5090565b61058c91905b80821115610588576000816000905550600101610570565b5090565b9056fea265627a7a723158209b7c6f3ee4e6a4e50c64ece5ff0cfc4efe9080307bbd7282fc4e67e561a940f364736f6c63430005100032",
  "source": "pragma solidity >=0.4.22 <0.9.0;\n\n\ncontract SimpleStorage {\n    uint storedInteger;\n    bool storedBool;\n    uint8 storedInteger8;\n    address storedAddress;\n    bytes32 storedBytes32;\n    bytes storedBytes;\n    string storedString;\n\n    event StoredInteger(uint storedInteger);\n    event StoredAll(uint storedInteger, bool storedBool, uint8 storedInteger8, address storedAddress, bytes32 storedBytes32, bytes storedBytes, string storedString);\n\n    function setInteger(uint integer) public {\n        storedInteger = integer;\n        emit StoredInteger(integer);\n    }\n\n    function setAll(uint integer, bool boolean, uint8 integer8, address _address, bytes32 _bytes32, bytes memory _bytes, string memory _string) public {\n        storedInteger = integer;\n        storedBool = boolean;\n        storedInteger8 = integer8;\n        storedAddress = _address;\n        storedBytes32 = _bytes32;\n        storedBytes = _bytes;\n        storedString = _string;\n\n        emit StoredAll(integer, boolean, integer8, _address, _bytes32, _bytes, _string);\n    }\n}",
  "sourcePath": "/Users/paulbeck/Development/OracleFactory/testContract/contracts/SimpleStorage.sol",
  "compiler": {
    "name": "solc",
    "version": "0.5.16+commit.9c3226ce.Emscripten.clang"
  },
  "schemaVersion": "3.4.1",
  "updatedAt": "2021-06-24T07:35:23.886Z",
  "networkType": "ethereum",
  "devdoc": {
    "methods": {}
  },
  "userdoc": {
    "methods": {}
  }
}