{
  "contractName": "SimpleStorage",
  "abi": [
    {
      "anonymous": false,
      "inputs": [
        {
          "indexed": false,
          "internalType": "string",
          "name": "kind",
          "type": "string"
        },
        {
          "indexed": false,
          "internalType": "string",
          "name": "token",
          "type": "string"
        },
        {
          "indexed": false,
          "internalType": "string",
          "name": "topic",
          "type": "string"
        },
        {
          "indexed": false,
          "internalType": "string",
          "name": "filter",
          "type": "string"
        },
        {
          "indexed": false,
          "internalType": "string",
          "name": "callback",
          "type": "string"
        },
        {
          "indexed": false,
          "internalType": "address",
          "name": "smartContractAddress",
          "type": "address"
        }
      ],
      "name": "OracleFactory",
      "type": "event"
    },
    {
      "anonymous": false,
      "inputs": [
        {
          "indexed": false,
          "internalType": "string",
          "name": "topic",
          "type": "string"
        },
        {
          "indexed": false,
          "internalType": "uint256",
          "name": "value",
          "type": "uint256"
        }
      ],
      "name": "PublishInteger",
      "type": "event"
    },
    {
      "anonymous": false,
      "inputs": [
        {
          "indexed": false,
          "internalType": "uint256",
          "name": "storedInteger",
          "type": "uint256"
        },
        {
          "indexed": false,
          "internalType": "bool",
          "name": "storedBool",
          "type": "bool"
        },
        {
          "indexed": false,
          "internalType": "uint8",
          "name": "storedInteger8",
          "type": "uint8"
        },
        {
          "indexed": false,
          "internalType": "address",
          "name": "storedAddress",
          "type": "address"
        },
        {
          "indexed": false,
          "internalType": "bytes32",
          "name": "storedBytes32",
          "type": "bytes32"
        },
        {
          "indexed": false,
          "internalType": "bytes",
          "name": "storedBytes",
          "type": "bytes"
        },
        {
          "indexed": false,
          "internalType": "string",
          "name": "storedString",
          "type": "string"
        }
      ],
      "name": "StoredAll",
      "type": "event"
    },
    {
      "anonymous": false,
      "inputs": [
        {
          "indexed": false,
          "internalType": "uint256",
          "name": "storedInteger",
          "type": "uint256"
        }
      ],
      "name": "StoredInteger",
      "type": "event"
    },
    {
      "constant": false,
      "inputs": [
        {
          "internalType": "string",
          "name": "topic",
          "type": "string"
        },
        {
          "internalType": "uint256",
          "name": "value",
          "type": "uint256"
        }
      ],
      "name": "integerCallback",
      "outputs": [],
      "payable": false,
      "stateMutability": "nonpayable",
      "type": "function"
    },
    {
      "constant": false,
      "inputs": [
        {
          "internalType": "string",
          "name": "topic",
          "type": "string"
        }
      ],
      "name": "subscribeOnChain",
      "outputs": [],
      "payable": false,
      "stateMutability": "nonpayable",
      "type": "function"
    },
    {
      "constant": false,
      "inputs": [
        {
          "internalType": "string",
          "name": "topic",
          "type": "string"
        }
      ],
      "name": "unsubscribeOnChain",
      "outputs": [],
      "payable": false,
      "stateMutability": "nonpayable",
      "type": "function"
    },
    {
      "constant": false,
      "inputs": [
        {
          "internalType": "string",
          "name": "topic",
          "type": "string"
        }
      ],
      "name": "subscribeOffChain",
      "outputs": [],
      "payable": false,
      "stateMutability": "nonpayable",
      "type": "function"
    },
    {
      "constant": false,
      "inputs": [
        {
          "internalType": "string",
          "name": "topic",
          "type": "string"
        }
      ],
      "name": "unsubscribeOffChain",
      "outputs": [],
      "payable": false,
      "stateMutability": "nonpayable",
      "type": "function"
    },
    {
      "constant": false,
      "inputs": [
        {
          "internalType": "uint256",
          "name": "integer",
          "type": "uint256"
        }
      ],
      "name": "setIntegerGreaterThenFive",
      "outputs": [],
      "payable": false,
      "stateMutability": "nonpayable",
      "type": "function"
    }
  ],
  "bytecode": "0x608060405273e4effb267484cd790143484de3bae7fdfbe31f00600560006101000a81548173ffffffffffffffffffffffffffffffffffffffff021916908373ffffffffffffffffffffffffffffffffffffffff16021790555034801561006557600080fd5b50610a2b806100756000396000f3fe608060405234801561001057600080fd5b50600436106100625760003560e01c8063091550bf1461006757806362f08a881461012c5780637203d1f1146101e7578063aac7d351146102a2578063eb1535ea1461035d578063f4cbdd3214610418575b600080fd5b61012a6004803603604081101561007d57600080fd5b810190808035906020019064010000000081111561009a57600080fd5b8201836020820111156100ac57600080fd5b803590602001918460018302840111640100000000831117156100ce57600080fd5b91908080601f016020809104026020016040519081016040528093929190818152602001838380828437600081840152601f19601f82011690508083019250505050505050919291929080359060200190929190505050610446565b005b6101e56004803603602081101561014257600080fd5b810190808035906020019064010000000081111561015f57600080fd5b82018360208201111561017157600080fd5b8035906020019184600183028401116401000000008311171561019357600080fd5b91908080601f016020809104026020016040519081016040528093929190818152602001838380828437600081840152601f19601f820116905080830192505050505050509192919290505050610451565b005b6102a0600480360360208110156101fd57600080fd5b810190808035906020019064010000000081111561021a57600080fd5b82018360208201111561022c57600080fd5b8035906020019184600183028401116401000000008311171561024e57600080fd5b91908080601f016020809104026020016040519081016040528093929190818152602001838380828437600081840152601f19601f82011690508083019250505050505050919291929050505061057a565b005b61035b600480360360208110156102b857600080fd5b81019080803590602001906401000000008111156102d557600080fd5b8201836020820111156102e757600080fd5b8035906020019184600183028401116401000000008311171561030957600080fd5b91908080601f016020809104026020016040519081016040528093929190818152602001838380828437600081840152601f19601f8201169050808301925050505050505091929192905050506106a3565b005b6104166004803603602081101561037357600080fd5b810190808035906020019064010000000081111561039057600080fd5b8201836020820111156103a257600080fd5b803590602001918460018302840111640100000000831117156103c457600080fd5b91908080601f016020809104026020016040519081016040528093929190818152602001838380828437600081840152601f19601f82011690508083019250505050505050919291929050505061085a565b005b6104446004803603602081101561042e57600080fd5b81019080803590602001909291905050506109ec565b005b806000819055505050565b600560009054906101000a900473ffffffffffffffffffffffffffffffffffffffff1673ffffffffffffffffffffffffffffffffffffffff1663db64283082306040518363ffffffff1660e01b815260040180806020018373ffffffffffffffffffffffffffffffffffffffff1673ffffffffffffffffffffffffffffffffffffffff168152602001828103825284818151815260200191508051906020019080838360005b838110156105125780820151818401526020810190506104f7565b50505050905090810190601f16801561053f5780820380516001836020036101000a031916815260200191505b509350505050600060405180830381600087803b15801561055f57600080fd5b505af1158015610573573d6000803e3d6000fd5b5050505050565b600560009054906101000a900473ffffffffffffffffffffffffffffffffffffffff1673ffffffffffffffffffffffffffffffffffffffff1663dfdc7f3182306040518363ffffffff1660e01b815260040180806020018373ffffffffffffffffffffffffffffffffffffffff1673ffffffffffffffffffffffffffffffffffffffff168152602001828103825284818151815260200191508051906020019080838360005b8381101561063b578082015181840152602081019050610620565b50505050905090810190601f1680156106685780820380516001836020036101000a031916815260200191505b509350505050600060405180830381600087803b15801561068857600080fd5b505af115801561069c573d6000803e3d6000fd5b5050505050565b7f329bad907c261f04ebb8e0f9a9d210d688361004f8cc203a4a2e50ae50dcc91081306040518080602001806020018060200180602001806020018773ffffffffffffffffffffffffffffffffffffffff1673ffffffffffffffffffffffffffffffffffffffff168152602001868103865260098152602001807f7375627363726962650000000000000000000000000000000000000000000000815250602001868103855288818151815260200191508051906020019080838360005b8381101561077c578082015181840152602081019050610761565b50505050905090810190601f1680156107a95780820380516001836020036101000a031916815260200191505b50868103845260098152602001807f2f696e74656765727300000000000000000000000000000000000000000000008152506020018681038352600b8152602001807f696e7465676572203e2035000000000000000000000000000000000000000000815250602001868103825260198152602001807f736574496e7465676572477265617465725468656e466976650000000000000081525060200197505050505050505060405180910390a150565b7f329bad907c261f04ebb8e0f9a9d210d688361004f8cc203a4a2e50ae50dcc91081306040518080602001806020018060200180602001806020018773ffffffffffffffffffffffffffffffffffffffff1673ffffffffffffffffffffffffffffffffffffffff1681526020018681038652600b8152602001807f756e737562736372696265000000000000000000000000000000000000000000815250602001868103855288818151815260200191508051906020019080838360005b83811015610933578082015181840152602081019050610918565b50505050905090810190601f1680156109605780820380516001836020036101000a031916815260200191505b50868103845260098152602001807f2f696e7465676572730000000000000000000000000000000000000000000000815250602001868103835260008152602001602001868103825260198152602001807f736574496e7465676572477265617465725468656e466976650000000000000081525060200197505050505050505060405180910390a150565b806000819055505056fea265627a7a723158207ec830ca8e357f81959a7557906631a7187b7a97e8e90c0f98fd321354ca003b64736f6c63430005100032",
  "source": "pragma solidity >=0.4.22 <0.9.0;\n\ninterface IntegerCallback {\n    function integerCallback(string calldata topic, uint256 value) external;\n}\n\ninterface PubSubOracle {\n    function subscribeInteger(string calldata topic, address smartContract) external;\n    function unsubscribeInteger(string calldata topic, address smartContract) external;\n}\n\ncontract SimpleStorage is IntegerCallback{\n    uint storedInteger;\n    bool storedBool;\n    uint8 storedInteger8;\n    address storedAddress;\n    bytes32 storedBytes32;\n    bytes storedBytes;\n    string storedString;\n\n    address onChainOracleAddress = 0xe4EFfB267484Cd790143484de3Bae7fDfbE31F00;\n\n    event StoredInteger(uint storedInteger);\n    event StoredAll(uint storedInteger, bool storedBool, uint8 storedInteger8, address storedAddress, bytes32 storedBytes32, bytes storedBytes, string storedString);\n    event PublishInteger(string topic, uint256 value);\n\n    event OracleFactory(string kind, string token, string topic, string filter, string callback, address smartContractAddress);\n    \n    function integerCallback(string memory topic, uint256 value) public{\n        storedInteger = value;\n    }\n    \n    function subscribeOnChain(string memory topic) public{\n        PubSubOracle(onChainOracleAddress).subscribeInteger(topic, address(this));\n    }\n\n    function unsubscribeOnChain(string memory topic) public{\n        PubSubOracle(onChainOracleAddress).unsubscribeInteger(topic, address(this));\n    }\n\n    function subscribeOffChain(string memory topic) public {\n        emit OracleFactory(\"subscribe\", topic, \"/integers\", \"integer > 5\", \"setIntegerGreaterThenFive\", address(this));\n    }\n\n    function unsubscribeOffChain(string memory topic) public {\n        emit OracleFactory(\"unsubscribe\", topic, \"/integers\", \"\", \"setIntegerGreaterThenFive\", address(this));\n    }\n\n    function setIntegerGreaterThenFive(uint integer) public {\n        storedInteger = integer;\n        //emit OracleFactory(\"unsubscribe\", \"token\", \"/integers\", \"\", \"setIntegerGreaterThenFive\", address(this));\n    }\n\n    /*function setAll(uint integer, bool boolean, uint8 integer8, address _address, bytes32 _bytes32, bytes memory _bytes, string memory _string) public {\n        storedInteger = integer;\n        storedBool = boolean;\n        storedInteger8 = integer8;\n        storedAddress = _address;\n        storedBytes32 = _bytes32;\n        storedBytes = _bytes;\n        storedString = _string;\n\n        emit StoredAll(integer, boolean, integer8, _address, _bytes32, _bytes, _string);\n    }*/\n}",
  "sourcePath": "/Users/paulbeck/Development/OracleFactory/caseStudies/testContract/contracts/SimpleStorage.sol",
  "compiler": {
    "name": "solc",
    "version": "0.5.16+commit.9c3226ce.Emscripten.clang"
  },
  "schemaVersion": "3.4.3",
  "updatedAt": "2021-12-01T20:02:53.011Z",
  "networkType": "ethereum",
  "devdoc": {
    "methods": {}
  },
  "userdoc": {
    "methods": {}
  }
}