{
  "contractName": "SimpleStorage",
  "abi": [
    {
      "anonymous": false,
      "inputs": [
        {
          "indexed": false,
          "internalType": "string",
          "name": "kind",
          "type": "string"
        },
        {
          "indexed": false,
          "internalType": "string",
          "name": "token",
          "type": "string"
        },
        {
          "indexed": false,
          "internalType": "string",
          "name": "topic",
          "type": "string"
        },
        {
          "indexed": false,
          "internalType": "string",
          "name": "filter",
          "type": "string"
        },
        {
          "indexed": false,
          "internalType": "string",
          "name": "callback",
          "type": "string"
        },
        {
          "indexed": false,
          "internalType": "address",
          "name": "smartContractAddress",
          "type": "address"
        }
      ],
      "name": "OracleFactory",
      "type": "event"
    },
    {
      "anonymous": false,
      "inputs": [
        {
          "indexed": false,
          "internalType": "uint256",
          "name": "storedInteger",
          "type": "uint256"
        },
        {
          "indexed": false,
          "internalType": "bool",
          "name": "storedBool",
          "type": "bool"
        },
        {
          "indexed": false,
          "internalType": "uint8",
          "name": "storedInteger8",
          "type": "uint8"
        },
        {
          "indexed": false,
          "internalType": "address",
          "name": "storedAddress",
          "type": "address"
        },
        {
          "indexed": false,
          "internalType": "bytes32",
          "name": "storedBytes32",
          "type": "bytes32"
        },
        {
          "indexed": false,
          "internalType": "bytes",
          "name": "storedBytes",
          "type": "bytes"
        },
        {
          "indexed": false,
          "internalType": "string",
          "name": "storedString",
          "type": "string"
        }
      ],
      "name": "StoredAll",
      "type": "event"
    },
    {
      "anonymous": false,
      "inputs": [
        {
          "indexed": false,
          "internalType": "uint256",
          "name": "storedInteger",
          "type": "uint256"
        }
      ],
      "name": "StoredInteger",
      "type": "event"
    },
    {
      "constant": false,
      "inputs": [],
      "name": "start",
      "outputs": [],
      "payable": false,
      "stateMutability": "nonpayable",
      "type": "function"
    },
    {
      "constant": false,
      "inputs": [
        {
          "internalType": "uint256",
          "name": "integer",
          "type": "uint256"
        }
      ],
      "name": "setIntegerGreaterThenFive",
      "outputs": [],
      "payable": false,
      "stateMutability": "nonpayable",
      "type": "function"
    },
    {
      "constant": false,
      "inputs": [
        {
          "internalType": "uint256",
          "name": "integer",
          "type": "uint256"
        },
        {
          "internalType": "bool",
          "name": "boolean",
          "type": "bool"
        },
        {
          "internalType": "uint8",
          "name": "integer8",
          "type": "uint8"
        },
        {
          "internalType": "address",
          "name": "_address",
          "type": "address"
        },
        {
          "internalType": "bytes32",
          "name": "_bytes32",
          "type": "bytes32"
        },
        {
          "internalType": "bytes",
          "name": "_bytes",
          "type": "bytes"
        },
        {
          "internalType": "string",
          "name": "_string",
          "type": "string"
        }
      ],
      "name": "setAll",
      "outputs": [],
      "payable": false,
      "stateMutability": "nonpayable",
      "type": "function"
    }
  ],
  "bytecode": "0x608060405234801561001057600080fd5b5061087f806100206000396000f3fe608060405234801561001057600080fd5b50600436106100415760003560e01c806367c157a114610046578063be9a6555146101e5578063f4cbdd32146101ef575b600080fd5b6101e3600480360360e081101561005c57600080fd5b8101908080359060200190929190803515159060200190929190803560ff169060200190929190803573ffffffffffffffffffffffffffffffffffffffff16906020019092919080359060200190929190803590602001906401000000008111156100c657600080fd5b8201836020820111156100d857600080fd5b803590602001918460018302840111640100000000831117156100fa57600080fd5b91908080601f016020809104026020016040519081016040528093929190818152602001838380828437600081840152601f19601f8201169050808301925050505050505091929192908035906020019064010000000081111561015d57600080fd5b82018360208201111561016f57600080fd5b8035906020019184600183028401116401000000008311171561019157600080fd5b91908080601f016020809104026020016040519081016040528093929190818152602001838380828437600081840152601f19601f82011690508083019250505050505050919291929050505061021d565b005b6101ed61043e565b005b61021b6004803603602081101561020557600080fd5b81019080803590602001909291905050506105c0565b005b8660008190555085600160006101000a81548160ff021916908315150217905550846001806101000a81548160ff021916908360ff16021790555083600160026101000a81548173ffffffffffffffffffffffffffffffffffffffff021916908373ffffffffffffffffffffffffffffffffffffffff1602179055508260028190555081600390805190602001906102b6929190610725565b5080600490805190602001906102cd9291906107a5565b507fb64568d9b0a86ee0722bd1773d93497c73572db44ac1c1c0baeb14cd8e02e8378787878787878760405180888152602001871515151581526020018660ff1660ff1681526020018573ffffffffffffffffffffffffffffffffffffffff1673ffffffffffffffffffffffffffffffffffffffff1681526020018481526020018060200180602001838103835285818151815260200191508051906020019080838360005b8381101561038e578082015181840152602081019050610373565b50505050905090810190601f1680156103bb5780820380516001836020036101000a031916815260200191505b50838103825284818151815260200191508051906020019080838360005b838110156103f45780820151818401526020810190506103d9565b50505050905090810190601f1680156104215780820380516001836020036101000a031916815260200191505b50995050505050505050505060405180910390a150505050505050565b7f329bad907c261f04ebb8e0f9a9d210d688361004f8cc203a4a2e50ae50dcc910306040518080602001806020018060200180602001806020018773ffffffffffffffffffffffffffffffffffffffff1673ffffffffffffffffffffffffffffffffffffffff168152602001868103865260098152602001807f7375627363726962650000000000000000000000000000000000000000000000815250602001868103855260058152602001807f746f6b656e000000000000000000000000000000000000000000000000000000815250602001868103845260098152602001807f2f696e74656765727300000000000000000000000000000000000000000000008152506020018681038352600b8152602001807f696e7465676572203e2035000000000000000000000000000000000000000000815250602001868103825260198152602001807f736574496e7465676572477265617465725468656e4669766500000000000000815250602001965050505050505060405180910390a1565b806000819055507f329bad907c261f04ebb8e0f9a9d210d688361004f8cc203a4a2e50ae50dcc910306040518080602001806020018060200180602001806020018773ffffffffffffffffffffffffffffffffffffffff1673ffffffffffffffffffffffffffffffffffffffff1681526020018681038652600b8152602001807f756e737562736372696265000000000000000000000000000000000000000000815250602001868103855260058152602001807f746f6b656e000000000000000000000000000000000000000000000000000000815250602001868103845260098152602001807f2f696e7465676572730000000000000000000000000000000000000000000000815250602001868103835260008152602001602001868103825260198152602001807f736574496e7465676572477265617465725468656e4669766500000000000000815250602001965050505050505060405180910390a150565b828054600181600116156101000203166002900490600052602060002090601f016020900481019282601f1061076657805160ff1916838001178555610794565b82800160010185558215610794579182015b82811115610793578251825591602001919060010190610778565b5b5090506107a19190610825565b5090565b828054600181600116156101000203166002900490600052602060002090601f016020900481019282601f106107e657805160ff1916838001178555610814565b82800160010185558215610814579182015b828111156108135782518255916020019190600101906107f8565b5b5090506108219190610825565b5090565b61084791905b8082111561084357600081600090555060010161082b565b5090565b9056fea265627a7a7231582009f62e3b2288938bfe47e5d080ff5e40a7832c6a4b8579439535125f9fc74fee64736f6c63430005100032",
  "source": "pragma solidity >=0.4.22 <0.9.0;\n\n\ncontract SimpleStorage {\n    uint storedInteger;\n    bool storedBool;\n    uint8 storedInteger8;\n    address storedAddress;\n    bytes32 storedBytes32;\n    bytes storedBytes;\n    string storedString;\n\n    event StoredInteger(uint storedInteger);\n    event StoredAll(uint storedInteger, bool storedBool, uint8 storedInteger8, address storedAddress, bytes32 storedBytes32, bytes storedBytes, string storedString);\n\n    event OracleFactory(string kind, string token, string topic, string filter, string callback, address smartContractAddress);\n    \n    function start() public {\n        emit OracleFactory(\"subscribe\", \"token\", \"/integers\", \"integer > 5\", \"setIntegerGreaterThenFive\", address(this));\n    }\n\n    function setIntegerGreaterThenFive(uint integer) public {\n        storedInteger = integer;\n        emit OracleFactory(\"unsubscribe\", \"token\", \"/integers\", \"\", \"setIntegerGreaterThenFive\", address(this));\n    }\n\n    function setAll(uint integer, bool boolean, uint8 integer8, address _address, bytes32 _bytes32, bytes memory _bytes, string memory _string) public {\n        storedInteger = integer;\n        storedBool = boolean;\n        storedInteger8 = integer8;\n        storedAddress = _address;\n        storedBytes32 = _bytes32;\n        storedBytes = _bytes;\n        storedString = _string;\n\n        emit StoredAll(integer, boolean, integer8, _address, _bytes32, _bytes, _string);\n    }\n}",
  "sourcePath": "/Users/paulbeck/Development/OracleFactory/caseStudies/testContract/contracts/SimpleStorage.sol",
  "compiler": {
    "name": "solc",
    "version": "0.5.16+commit.9c3226ce.Emscripten.clang"
  },
  "schemaVersion": "3.4.3",
  "updatedAt": "2021-11-23T21:59:56.755Z",
  "networkType": "ethereum",
  "devdoc": {
    "methods": {}
  },
  "userdoc": {
    "methods": {}
  }
}